:020000040800F2
:10000000000000004100000800000000C1000008DE
:100010000000000000000000730000080000000065
:10002000000000000000000000000000E1000008E7
:1000300000000000000000000000000000000000C0
:10004000DFF834D000F05AF800F0A8F900F07CF89E
:100050004FF000004FF011314FF022324FF03333A8
:100060004FF0443C4FF0553EFFFFFFFF01DF0348D8
:100070008047684600F070B8005000203102000848
:1000800010B5431C02E010F8011B71B18107FAD1D1
:100090004FF0013202C88C1A8C4314EAC211F9D015
:1000A000C01A0A0603D0C01E10BDC01A10BD0A0433
:1000B00001D0801E10BD0902FCD0401E10BD000002
:1000C00002A000F02DF900BFFEE700004861726455
:1000D0004661756C745F48616E646C657200000007
:1000E00010B502A000F01CF910BD0000535643618A
:1000F0006C6C5F48616E646C6572000000B50A4804
:100100000A49884202D00A4A00F07EF809480A49A2
:10011000884202D0094A00F077F8094A00210948CC
:1001200000F07DF800BD000000000008000000089D
:100130003804000000000020380400080800000017
:1001400000000000080000200248416A41F48021BC
:100150004162704700ED00E070B50446144D15A0F3
:1001600000F0DEF818A0216800F0E6F818A0616839
:1001700000F0E2F818A0A16800F0DEF818A0E1682D
:1001800000F0DAF818A0216900F0D6F818A061692B
:1001900000F0D2F818A0A16900F0CEF818A0E1692B
:1001A00000F0CAF8A86AA862A069001DA06170BD2D
:1001B00000ED00E055736167654661756C745F48DA
:1001C000616E646C65720000523020203D2000009A
:1001D000523120203D200000523220203D200000DE
:1001E000523320203D200000523132203D200000BB
:1001F0004C5220203D200000504320203D20000094
:10020000785053523D20000010B503E00B680360A6
:10021000001D091D131EA2F10102F7D110BD10B57A
:1002200001E00160001D131EA2F10102F9D110BD11
:100230000FA000F075F814A000F072F816A000F0FE
:100240006FF81948016819A000F076F81D48016898
:100250001DA000F071F81FA000F062F812491EA066
:1002600000F06AF8174922A000F066F800BFFEE728
:100270002D2D2D2D2D2D2D2D2D73746172742D2D61
:100280002D2D2D2D2D0000006265666F7265206694
:10029000756E635F70747200616674657220667556
:1002A0006E635F707472000000000020675F696E0B
:1002B000745F6E6F5F76616C75652076616C7565D5
:1002C0003A00000004000020675F696E74207661C8
:1002D0006C75653A00000000675F696E745F6E6F51
:1002E0005F76616C756520616464726573733A0052
:1002F000675F696E7420616464726573733A0000AD
:1003000070B50546002400BF03E0285D00F086F8C4
:10031000641C2846FFF7B4FEA042F6DC70BD000066
:1003200010B504462046FFF7EBFF02A0FFF7E8FFF9
:1003300010BD00000D0A0000FEB507460E46384607
:10034000FFF7DEFF14A0FFF7DBFF07241AE0A00091
:1003500026FA00F000F00F05002D0ADB092D08DC5D
:1003600005F13000C1B2601CC0F108000DF80010AA
:1003700007E005F13700C1B2601CC0F108000DF8BC
:100380000010641E002CE2DA00208DF80800684698
:10039000FFF7C6FFFEBD0000307800001549086871
:1003A00040F004000860091D086840F4003008604F
:1003B0001149086820F470600860086840F4106013
:1003C0000860086820F470400860086840F48040C5
:1003D00008600A4A906840F045009060D06842F298
:1003E0000C031843D060106920F4405010610020C5
:1003F000704700001810024000080140004400400F
:100400000146054A00BF106800F020000028FAD01D
:1004100050680870002070470044004002460549BB
:1004200000BF086800F080000028FAD04A60002071
:100430007047000000440040000000000000000081
:0400000500000000F7
:00000001FF
