:020000040800F2
:100000000000000009000008DFF81CD0074808497C
:10001000084A00F035F808484FF00001074A00F0A0
:100020003DF800F045F8000000500020FC020020E0
:10003000FC02000800000000FC0200200C00000090
:1000400010B5431C02E010F8011B71B18107FAD111
:100050004FF0013202C88C1A8C4314EAC211F9D055
:10006000C01A0A0603D0C01E10BDC01A10BD0A0473
:1000700001D0801E10BD0902FCD0401E10BD000042
:10008000002A08BF70470439043800BF51F8043F04
:10009000013A40F8043FF9D170470000002A08BF38
:1000A00070470438013A40F8041FFBD17047000044
:1000B00070B500F0D7F840F2E420C2F2000000F082
:1000C0009FF81EA000F09CF840F2CD211FA0C2F2C4
:1000D000000100F09FF8322000F0F8F820A000F0B6
:1000E0008FF840F20034C2F20004216820A000F032
:1000F00091F840F2FC25C2F20005296822A000F028
:1001000089F840F20436C2F20006316822A000F0FD
:1001100081F840F2F920C2F2000000F071F821A04D
:10012000214600F077F825A0294600F073F827A0B3
:10013000314600F06FF8002070BD00BF6265666F49
:1001400072652066756E635F7074720066756E63AB
:100150005F70747220616464726573733A000000AA
:1001600061667465722066756E635F7074720000FC
:10017000675F696E745F6E6F5F76616C7565207620
:10018000616C75653A000000675F696E7420766186
:100190006C75653A00000000735F432076616C75F2
:1001A000653A0000675F696E745F6E6F5F76616CC1
:1001B000756520616464726573733A00675F696E88
:1001C0007420616464726573733A0000735F432046
:1001D000616464726573733A00000000B0B5044650
:1001E0000078002808BFB0BD002500BF605D00F0AA
:1001F0006DF820460135FFF723FF8542F6D3B0BDE9
:1002000080B5FFF7EBFF02A0FFF7E8FF80BD00BF5E
:100210000D0A000010B584B00C46FFF7DFFF10A0F8
:10022000FFF7DCFF0DF1070001381C2124FA01F271
:1002300002F00F0202F137030A2AA1F1040138BFCC
:1002400002F130030A1D00F8013FEFD100208DF8C4
:100250000F000DF10700FFF7D3FF04B010BD00BF82
:100260003078000041F21800C4F20200D0E9001218
:1002700041F0040142F40032C0E9001240F60000EF
:10028000C4F201004921417044F20841C4F2000166
:10029000086842F20C0240F04500086048681043CC
:1002A0004860886820F4405200208A60704700004F
:1002B000014644F20040C4F2000000BF026892060A
:1002C000FCD5426800200A707047000044F20042EA
:1002D0000146C4F2000200BF10680006FCD50020F1
:1002E000516070472D2D2D2D2D2D2D2D2D737461C9
:0C02F00072742D2D2D2D2D2D2D000000E1
:0400000500000000F7
:00000001FF
