:020000040800F2
:100000000000000009000008DFF824D009480A4970
:100010000A4A00F041F80A484FF00001094A00F08E
:1000200049F8094809490A4A00F036F80948804762
:1000300000500020CC020020CC020008000000008C
:10004000CC0200200C00000000000020000000088E
:10005000CC020000C900002010B5431C02E010F8DB
:10006000011B71B18107FAD14FF0013202C88C1A1D
:100070008C4314EAC211F9D0C01A0A0603D0C01E7C
:1000800010BDC01A10BD0A0401D0801E10BD0902A7
:10009000FCD0401E10BD0000002A08BF7047043984
:1000A000043800BF51F8043F013A40F8043FF9D149
:1000B00070470000002A08BF70470438013A40F832
:1000C000041FFBD17047000070B500F0BDF817A009
:1000D00000F088F840F2D024C2F2000421681DA08C
:1000E00000F08AF840F2CC25C2F2000529681FA072
:1000F00000F082F840F2D426C2F2000631681FA058
:1001000000F07AF840F2C820C2F2000000F06AF86D
:100110001DA0214600F070F821A0294600F06CF8DF
:1001200023A0314600F068F8002070BD2D2D2D2D44
:100130002D2D2D2D2D2D202D2D2D2D2D2D2D73746F
:100140006172742D2D2D2D2D2D2D2D2D2D2D2D2D1F
:1001500000000000675F696E745F6E6F5F76616CB0
:1001600075652076616C75653A000000675F696EA1
:10017000742076616C75653A00000000735F43205F
:1001800076616C75653A0000675F696E745F6E6FCB
:100190005F76616C756520616464726573733A00A3
:1001A000675F696E7420616464726573733A0000FE
:1001B000735F4320616464726573733A00000000EA
:1001C000B0B504460078002808BFB0BD002500BFC8
:1001D000605D00F06DF820460135FFF73DFF854278
:1001E000F6D3B0BD80B5FFF7EBFF02A0FFF7E8FF45
:1001F00080BD00BF0D0A000010B584B00C46FFF7AB
:10020000DFFF10A0FFF7DCFF0DF1070001381C2114
:1002100024FA01F202F00F0202F137030A2AA1F1D7
:10022000040138BF02F130030A1D00F8013FEFD18D
:1002300000208DF80F000DF10700FFF7D3FF04B089
:1002400010BD00BF3078000041F21800C4F2020077
:10025000D0E9001241F0040142F40032C0E900127A
:1002600040F60000C4F201004921417044F2084107
:10027000C4F20001086842F20C0240F04500086038
:10028000486810434860886820F4405200208A6023
:1002900070470000014644F20040C4F2000000BF75
:1002A00002689206FCD5426800200A707047000080
:1002B00044F200420146C4F2000200BF106800068A
:0C02C000FCD500205160704700000000D9
:0400000500000000F7
:00000001FF
